:1000000004308A005C2C0000A0216137A035671005
:100010000000A02BE53467343A102532AE12E4120A
:10002000E4126410EB3300003630840083130008C0
:10003000031928280130F800F701F70B1D28F80BE9
:100040001C284A30F700F70B23282628800B1A2893
:1000500008003D182D2808122E28081683160812AD
:100060008312BD1835288812362888168316881200
:1000700083123D193D2808133E28081783160813DC
:100080008312BD19452888134628881783168813BC
:10009000000083128716A0122008831687005028BC
:1000A00083128712A012200883168700831208008B
:1000B000BE018316081600308312081A0130BE04F0
:1000C0008316881600308312881A0130F700031057
:1000D000F70D7708BE048316081700308312081B3B
:1000E0000130F700F70DF70DFC30F7057708BE0477
:1000F0008316881700308312881B0130F700F70D34
:10010000F70DF70DF830F7057708BE043E08F80044
:100110000800A01220088316870008118811831296
:1001200008118316081108168816081788178312F5
:10013000881583168811000083128716A0122008E4
:10014000831687000000831258207808BD008712AC
:10015000A012200883168700000083128716A012C1
:100160002008831687000000831258207808BC00FE
:100170008712A0122008831687000812881208131D
:10018000881383123D0EF700F030F70577083C0422
:10019000F8007808BC00BC1FCF2883169328BA0843
:1001A000031DD4280811D52808158316081100004E
:1001B0008312881183168811000083128712A012FF
:1001C00020088316870083123B0EBC000F30BC054D
:1001D0003C08BD0029203B080F39BC00BD00292088
:1001E00008002830B0000C30B1000130B2000630F9
:1001F000B3008712A012200883168700831208110B
:100200008316081183128811831688110812881228
:10021000081388138312A012200883168700081180
:1002200088110F308312B60014200130AF002F0860
:10023000033C031C23290330BD0029200530B600F0
:100240001420AF0A17290230BD0029200530B6005E
:100250001420AF012F08033C031C3A2930302F072C
:10026000840083130008B400BA013408BB0089205D
:10027000AF0A2A298A110A127D2C370B40294329FB
:100280004030B8004429B80101303602B8073808B8
:100290008038B900BA013908BB0089200800350848
:1002A000073A03195D290B3A03196229063A031923
:1002B0006A29023A0319702975290130B600B7007E
:1002C0003D217A29BA010130BB0089200230B600F5
:1002D00014207A290130B6000230B7003D217A2976
:1002E000BA011030BB0089207A290130BA003508E4
:1002F000BB00892008000B08AF008B13831603177F
:100300008C170C140000000083120313AF1B8B1713
:1003100003170C087F390319CF290313AF00031704
:100320000D080313B00003170F080313B1002F08C3
:10033000B5004F21300803178D0003133108031750
:100340008F0003130B08B2008B13831603178C174F
:100350000C140000000083120313B21B8B17031749
:100360000C0D0E0D7F390319CF290313AF000317AE
:100370000D080313B00003170F080313B1002F0873
:10038000B5004F21300803178D0003133108031700
:100390008F008D0A03198F0A03137B290317031398
:1003A0008A110A12882CB201B101B001AF01831683
:1003B0000510831205148316851083128510B2016F
:1003C000B101B001AF018316051483120518E329AA
:1003D000B3013308173C031C092A831685108312C6
:1003E00085140310AF0DB00DB10DB20D831685103D
:1003F00083128510831605148312051C072A013009
:10040000AF070318B00A0319B10A0319B20AB30AF5
:10041000E9298316851083128514AF17831685107A
:10042000831285102F08B4003008B5003108B600DB
:10043000F830B5053608B0003508AF00B101B2019B
:100440003208BA003108B9003008B8002F08B700E8
:10045000B630F700FA01F901F80137083804390419
:100460003A04031D352AF701422A0310F81B412ADA
:10047000B70DB80DB90DBA0DFA0DF90DF80DF70B52
:10048000352AF8137A08BA007908B9007808B80054
:100490007708B7005230BE00B830BD003E30BC0017
:1004A0007F30BB0037080319C22ABF003B0803197D
:1004B000C22ABF070318632A7F30BF02031CC22A67
:1004C0000319C22A672A8130BF070318C22A3F08CE
:1004D000F700F801F901FA013808C300C317390819
:1004E000C2003A08C1001830BF00C001411C902A68
:1004F0003E08FA07031C822AF90A031D822AF80A19
:100500000319C0173D08F907031C892AF80A0319C3
:10051000C0173C08B900B9173908F8070318C01705
:10052000C00DF80CF90CFA0CC30CC20CC10C031072
:10053000BF0B752A0130F7070318C22AF81BA72A38
:10054000C30DFA0DF90DF80DF7030319C22AC31FE5
:10055000B82AFA0A031DB82AF90A031DB82AF80AAC
:10056000031DB82AF80CF90CFA0CF70A0319C22A71
:100570003808C0003C08C006C01FC02AF817C62AA9
:10058000F813C62AF701F801F901FA017A08BA004E
:100590007908B9007808B8007708B7003708B63C82
:1005A000B700FA013808BB00B8170310B80CB90C33
:1005B000BA0CFA0CF90CF80CF70CB70BD52ABB1FC8
:1005C000EC2AF709F809F909FA09F70A0319F80AF0
:1005D0000319F90A0319FA0A08008318F22A3F30AE
:1005E00084008313F701F801F901FA01BF01C0018A
:1005F000C101C2013E083D043C043B040319302BF9
:100600002030C3000310B70DB80DB90DBA0DBF0DE2
:10061000C00DC10DC20D3E084202031D192B3D083D
:100620004102031D192B3C084002031D192B3B08F6
:100630003F02031C2A2B3B08BF023C08031C3C0F53
:10064000C0023D08031C3D0FC1023E08031C3E0FC3
:10065000C2020314F70DF80DF90DFA0DC30B022BAE
:100660003F088000840A40088000840A4108800016
:10067000840A4208800008000B08B0008B13831620
:1006800003178C170C140000000083120313B01B17
:100690008B170318732B03170C087F390313B00053
:1006A00003170D080313B10003170F080313B2005B
:1006B0003008B5004F21310803178D0003133208AD
:1006C00003178F0003130B08B3008B138316031754
:1006D0008C170C140000000083120313B31B8B173C
:1006E000AF0B732B922B03170C0D0E0D7F390313D9
:1006F000B00003170D080313B10003170F0803130D
:10070000B2003008B5004F21310803178D000313E4
:10071000320803178F008D0A03198F0A0310031381
:10072000AF0B3C2B8A110A124F2D3608F801350207
:1007300003189D2B3508F700A92BF7010830B700E7
:10074000B50DF70D360877020318F700F80DB70B53
:10075000A02B08002030301E3030B1002F08F700E9
:10076000AF1FBA2BF709F70A7708AF002D30B10099
:10077000B01730142F08B5006430B6009523770801
:10078000AF0030307807B2002F08B5000A30B6004D
:10079000952330307707B40030307807B300310844
:1007A000F700303032020319D92BB014B01B3015CA
:1007B000ED2B3108B2002030B10030303302031984
:1007C000E52B3014B01BB014ED2B031D3014031DAA
:1007D000ED2B3208B3002030B2003019F42BB018E2
:1007E000F72B3018FA2BFD2B3108B5004F213208BA
:1007F000B5004F213308B5004F213408B5004F2113
:1008000008002030301E3030B1002F08F700AF1F35
:10081000112CF709F70A7708AF002D30B100B01797
:1008200030142F08B5006430B60095237708AF0068
:1008300030307807B2002F08B5000A30B600952393
:1008400030307707B40030307807B3003108F70054
:10085000303032020319302CB014B01B3015442C48
:100860003108B2002030B1003030330203193C2C83
:100870003014B01BB014442C031D3014031D442C41
:100880003208B3002030B20030194B2CB0184F2C76
:100890003018532C572C31080C1E4C2C9900320860
:1008A0000C1E502C990033080C1E542C990034084F
:1008B0000C1E582C9900080003081F3983001930BA
:1008C00083169900A6309800903083129800FF306C
:1008D000A000AA01A90183161F149F141F159F11C0
:1008E00007309C0083130030880087008312A0002B
:1008F000FF30831685008312F1280130B600B7005F
:100900003D21043003178D0000308F0003137B2935
:100910000430AF00FA30B6001420AF0B8A2CD3217C
:100920007808A8007708A7000130B6000230B700A9
:100930003D21D32127087702AB007808AC002808B6
:10094000031C280FAC027908AD000030031C0130F5
:10095000AD027A08AE000030031C0130AE028314F1
:100960002F30840083132E08BA002D08B9002C08FC
:10097000B8002B08B700BE01BD01BC010A30BB00A6
:10098000ED222F08A10083102E08BA002D08B9000F
:100990002C08B8002B08B700BE01BD01BC010A300D
:1009A000BB00ED227A08B2007908B1007808B000E7
:1009B0007708AF0083143330840083137A08BA00B9
:1009C0007908B9007808B8007708B700BE01BD0102
:1009D000BC010A30BB00ED223308A20083102E08B0
:1009E000BA002D08B9002C08B8002B08B700BE01CA
:1009F000BD01BC016430BB00ED227A08B200790869
:100A0000B1007808B0007708AF0083143330840059
:100A100083137A08BA007908B9007808B800770813
:100A2000B700BE01BD01BC010A30BB00ED22330896
:100A3000A30083102E08BA002D08B9002C08B800B6
:100A40002B08B700BE01BD010330BC00E830BB007D
:100A5000ED227A08B2007908B1007808B000770872
:100A6000AF0083143330840083137A08BA00790806
:100A7000B9007808B8007708B700BE01BD01BC0115
:100A80000A30BB00ED223308A400093003178D00A3
:100A900000308F00031008300313AF003C2B2408F4
:100AA000AF001830B000AA232E30B5004F21230824
:100AB000AF001830B000AA232208AF001830B000F1
:100AC000AA232108AF001830B000AA232030B500B7
:100AD0004F216B30B5004F216730B5004F212408FE
:100AE000AF001830B00001242E300C1E752D990077
:100AF0002308AF001830B00001242208AF001830DE
:100B0000B00001242108AF001830B00001240D30DE
:100B10000C1E882D99000430AF00FA30B600142066
:080B2000AF0B8D2D942C630036
:02400E00713F00
:00000001FF
;PIC16F877A
;CRC=BDF4  CREATED="13-Jun-24 22:54"
